:020000040800F2
:1000000000800120450300089503000895030008BF
:100010009503000895030008950300080000000000
:100020000000000000000000000000009503000830
:1000300095030008000000009503000895030008E0
:1000400000000000950300089503000895030008D0
:100050009503000895030008950300089503000820
:1000600095030008950300089503000800000000B0
:100070000000000000000000000000000000000080
:1000800000000000000000009503000800000000D0
:1000900000000000000000000000000095030008C0
:1000A00095030008950300089503000895030008D0
:1000B00095030008950300089503000895030008C0
:1000C00095030008950300089503000895030008B0
:1000D0009503000895030008950300080000000040
:1000E0009503000895030008950300080000000030
:1000F0000000000000000000000000000000000000
:10010000000000009503000895030008950300080F
:1001100000000000000000000000000000000000DF
:1001200000000000000000000000000000000000CF
:1001300000000000000000000000000000000000BF
:10014000000000000000000000000000950300080F
:1001500000000000000000000000000095030008FF
:10016000950300089503000800000000000000004F
:10017000000000000000000000000000000000007F
:1001800000000000950300080000000000000000CF
:0401900095030008CB
:1001940010B5054C237833B9044B13B10448AFF3BD
:1001A40000800123237010BD000000200000000027
:1001B4003C05000808B5034B1BB103490348AFF3E2
:1001C400008008BD00000000040000203C05000879
:1001D40080B483B000AF00237B6002E07B6801330E
:1001E4007B607B6842F20F729342F7D900BF00BF75
:1001F4000C37BD465DF8047B7047000080B582B0C3
:1002040000AF0121012000F053F920233B600123BA
:100214003B7102237B710023BB710123FB713B46BD
:100224001946034800F0B5F800BF0837BD4680BD45
:100234000000024080B582B000AF0121042000F02C
:1002440037F94FF400533B6000233B7102237B7169
:100254000123FB713B461946034800F09AF800BF9E
:100264000837BD4680BD00BF0008024080B483B09B
:1002740000AF78600B467B8013467B707B78012B44
:1002840002D17B687A881A837B78002B02D17B6841
:100294007A885A8300BF0C37BD465DF8047B7047EB
:1002A40080B485B000AF78600B467B800023FB737D
:1002B4007B681A697B881340002B02D00123FB73EF
:1002C40001E00023FB73FB7B18461437BD465DF841
:1002D400047B704780B582B000AF0123FB71FFF748
:1002E4008DFFFFF7A7FF4FF400511348FFF7D8FF26
:1002F4000346002BF7D1FFF76BFFFB790133FB714A
:10030400FB7903F00103DBB2002B05D1012220218C
:100314000A48FFF7ABFF04E0002220210748FFF75B
:10032400A5FF00BF4FF400510348FFF7B9FF034690
:10033400002BF7D0D7E700BF0008024000000240BE
:100344000D488546AFF300800C480D490D4A002343
:1003540002E0D458C4500433C4188C42F9D30A4A76
:100364000A4C002301E013600432A242FBD300F0E4
:10037400BFF8FFF7AFFFFEE7008001200000002078
:10038400000000205C050008000000201C00002084
:10039400FEE780B487B000AF7860396000237B61EA
:1003A40000233B610023FB6000237B6176E0012294
:1003B4007B6902FA03F33B613B681B683A691340AB
:1003C400FB60FA683B699A4265D17B681A687B696D
:1003D4005B00032101FA03F3DB431A407B681A60D4
:1003E4007B681A683B681B7919467B695B0001FAD4
:1003F40003F31A437B681A603B681B79012B03D013
:100404003B681B79022B2ED17B689A687B695B0061
:10041400032101FA03F3DB431A407B689A607B688B
:100424009A683B685B7919467B695B0001FA03F3C0
:100434001A437B689A607B685A687B699BB2194649
:1004440001238B40DB431A407B685A607B685B68FE
:100454003A68927911467A6992B201FA02F292B23A
:100464001A437B685A607B68DA687B699BB25B00DD
:10047400032101FA03F3DB431A407B68DA607B68EB
:10048400DA683B68DB7919467B695B0001FA03F3A0
:100494001A437B68DA607B6901337B617B690F2BCC
:1004A40085D900BF1C37BD465DF8047B704700004A
:1004B40080B483B000AF78600B46FB70FB78002BF0
:1004C40006D00A4B1A6B09497B6813430B6306E099
:1004D400064B1A6B7B68DB43044913400B6300BF74
:1004E4000C37BD465DF8047B704700BF00380240FE
:1004F40070B50D4D0D4C641BA4100026A64209D105
:100504000B4D0C4C00F018F8641BA4100026A642F6
:1005140005D170BD55F8043B98470136EEE755F810
:10052400043B98470136F2E75405000854050008D7
:100534005405000858050008F8B500BFF8BC08BC0D
:100544009E467047F8B500BFF8BC08BC9E4670478D
:04055400B9010008E1
:040558009501000801
:0400000508000345A7
:00000001FF
