:020000040800F2
:1000000000800120490400089904000899040008B0
:1000100099040008990400089904000800000000F1
:10002000000000000000000000000000990400082B
:1000300099040008000000009904000899040008D1
:1000400000000000990400089904000899040008C1
:10005000990400089904000899040008990400080C
:1000600099040008990400089904000800000000A1
:100070000000000000000000000000000000000080
:1000800000000000000000009904000800000000CB
:1000900000000000000000000000000099040008BB
:1000A00099040008990400089904000899040008BC
:1000B00099040008990400089904000899040008AC
:1000C000990400089904000899040008990400089C
:1000D0009904000899040008990400080000000031
:1000E0009904000899040008990400080000000021
:1000F0000000000000000000000000000000000000
:100100000000000099040008990400089904000800
:1001100000000000000000000000000000000000DF
:1001200000000000000000000000000000000000CF
:1001300000000000000000000000000000000000BF
:10014000000000000000000000000000990400080A
:1001500000000000000000000000000099040008FA
:100160009904000899040008000000000000000045
:10017000000000000000000000000000000000007F
:1001800000000000990400080000000000000000CA
:0401900099040008C6
:1001940010B5054C237833B9044B13B10448AFF3BD
:1001A40000800123237010BD000000200000000027
:1001B4004006000808B5034B1BB103490348AFF3DD
:1001C400008008BD00000000040000204006000874
:1001D40080B582B000AF0121072000F0EBF940F2B6
:1001E40023433B6001233B7102237B710023BB71DA
:1001F4000223FB713B461946114800F04CF94FF4B9
:1002040000733B603B4619460E4800F044F9012355
:100214003B6000233B7102237B710123FB713B464E
:100224001946094800F037F910233B603B4619464C
:10023400034800F030F900BF0837BD4680BD00BF59
:1002440000000240000802400004024080B485B06F
:1002540000AF78600023FB6002E0FB680133FB60C1
:100264007B684FF47A6202FB03F3FA689A42F4D390
:1002740000BF00BF1437BD465DF8047B704780B4EF
:1002840083B000AF78600B467B8013467B707B782D
:10029400012B02D17B687A881A837B78002B02D1E8
:1002A4007B687A885A8300BF0C37BD465DF8047BAF
:1002B400704780B485B000AF78600B467B80002324
:1002C400FB737B681A697B881340002B02D00123DF
:1002D400FB7301E00023FB73FB7B18461437BD4618
:1002E4005DF8047B704780B584B000AF78600B463E
:1002F4007B8013467B700023FB7314E07B88012210
:1003040019467868FFF7BBFFC820FFF79FFF7B887B
:10031400002219467868FFF7B2FFC820FFF796FF5E
:10032400FB7B0133FB73FA7B7B789A42E6D300BFF5
:1003340000BF1037BD4680BD80B582B000AFFFF767
:1003440047FF022220213C48FFF7CDFF0023FB7129
:100354000023BB7101213948FFF7ABFF0346002B93
:1003640043D13220FFF772FFFB790133FB7100BFE9
:1003740001213248FFF79DFF0346002BF8D0FB799B
:10038400022B32D100237B712AE0012201212A4869
:10039400FFF775FF01224FF480612748FFF76FFFD5
:1003A40001224FF400712648FFF769FFC820FFF7C8
:1003B4004DFF002201212048FFF761FF00224FF486
:1003C40080611D48FFF75BFF00224FF400711C4859
:1003D400FFF755FFC820FFF739FF7B7901337B71A5
:1003E4007B79012BD1D90023FB7110211248FFF72F
:1003F40060FF0346002B0DD13220FFF727FFBB79A6
:100404000133BB7100BF10210B48FFF752FF0346B5
:10041400002BF8D0BB79012B05D10122022106481B
:10042400FFF72DFF96E7002202210348FFF727FF7D
:100434000023BB718EE700BF0000024000040240AD
:10044400000802400D488546AFF300800C480D4972
:100454000D4A002302E0D458C4500433C4188C421B
:10046400F9D30A4A0A4C002301E013600432A24281
:10047400FBD300F0BFF8FFF75FFFFEE70080012029
:10048400000000200000002060060008000000209A
:100494001C000020FEE780B487B000AF78603960AC
:1004A40000237B6100233B610023FB6000237B610D
:1004B40076E001227B6902FA03F33B613B681B6827
:1004C4003A691340FB60FA683B699A4265D17B68DC
:1004D4001A687B695B00032101FA03F3DB431A40CA
:1004E4007B681A607B681A683B681B7919467B69CC
:1004F4005B0001FA03F31A437B681A603B681B79BB
:10050400012B03D03B681B79022B2ED17B689A68A0
:100514007B695B00032101FA03F3DB431A407B6828
:100524009A607B689A683B685B7919467B695B00D3
:1005340001FA03F31A437B689A607B685A687B6903
:100544009BB2194601238B40DB431A407B685A60F7
:100554007B685B683A68927911467A6992B201FACB
:1005640002F292B21A437B685A607B68DA687B694C
:100574009BB25B00032101FA03F3DB431A407B685F
:10058400DA607B68DA683B68DB7919467B695B0073
:1005940001FA03F31A437B68DA607B6901337B61F8
:1005A4007B690F2B85D900BF1C37BD465DF8047BE2
:1005B4007047000080B483B000AF78600B46FB70D6
:1005C400FB78002B06D00A4B1A6B09497B6813434E
:1005D4000B6306E0064B1A6B7B68DB43044913404C
:1005E4000B6300BF0C37BD465DF8047B704700BF4A
:1005F4000038024070B50D4D0D4C641BA41000264C
:10060400A64209D10B4D0C4C00F018F8641BA41041
:100614000026A64205D170BD55F8043B9847013623
:10062400EEE755F8043B98470136F2E75806000810
:1006340058060008580600085C060008F8B500BF14
:10064400F8BC08BC9E467047F8B500BFF8BC08BCAF
:040654009E46704707
:04065800B9010008DC
:04065C0095010008FC
:0400000508000449A2
:00000001FF
